{
  "_format": "hh-sol-artifact-1",
  "contractName": "Medium",
  "sourceName": "src/backend/contracts/Medium.sol",
  "abi": [
    {
      "inputs": [
        {
          "internalType": "string",
          "name": "name_",
          "type": "string"
        },
        {
          "internalType": "string",
          "name": "symbol_",
          "type": "string"
        },
        {
          "internalType": "uint256",
          "name": "fees_",
          "type": "uint256"
        }
      ],
      "stateMutability": "nonpayable",
      "type": "constructor"
    },
    {
      "anonymous": false,
      "inputs": [
        {
          "indexed": true,
          "internalType": "address",
          "name": "owner",
          "type": "address"
        },
        {
          "indexed": true,
          "internalType": "address",
          "name": "approved",
          "type": "address"
        },
        {
          "indexed": true,
          "internalType": "uint256",
          "name": "tokenId",
          "type": "uint256"
        }
      ],
      "name": "Approval",
      "type": "event"
    },
    {
      "anonymous": false,
      "inputs": [
        {
          "indexed": true,
          "internalType": "address",
          "name": "owner",
          "type": "address"
        },
        {
          "indexed": true,
          "internalType": "address",
          "name": "operator",
          "type": "address"
        },
        {
          "indexed": false,
          "internalType": "bool",
          "name": "approved",
          "type": "bool"
        }
      ],
      "name": "ApprovalForAll",
      "type": "event"
    },
    {
      "anonymous": false,
      "inputs": [
        {
          "indexed": true,
          "internalType": "address",
          "name": "previousOwner",
          "type": "address"
        },
        {
          "indexed": true,
          "internalType": "address",
          "name": "newOwner",
          "type": "address"
        }
      ],
      "name": "OwnershipTransferred",
      "type": "event"
    },
    {
      "anonymous": false,
      "inputs": [
        {
          "indexed": true,
          "internalType": "address",
          "name": "from",
          "type": "address"
        },
        {
          "indexed": true,
          "internalType": "address",
          "name": "to",
          "type": "address"
        },
        {
          "indexed": true,
          "internalType": "uint256",
          "name": "tokenId",
          "type": "uint256"
        }
      ],
      "name": "Transfer",
      "type": "event"
    },
    {
      "inputs": [
        {
          "internalType": "address",
          "name": "to",
          "type": "address"
        },
        {
          "internalType": "uint256",
          "name": "tokenId",
          "type": "uint256"
        }
      ],
      "name": "approve",
      "outputs": [],
      "stateMutability": "nonpayable",
      "type": "function"
    },
    {
      "inputs": [
        {
          "internalType": "address",
          "name": "owner",
          "type": "address"
        }
      ],
      "name": "balanceOf",
      "outputs": [
        {
          "internalType": "uint256",
          "name": "",
          "type": "uint256"
        }
      ],
      "stateMutability": "view",
      "type": "function"
    },
    {
      "inputs": [],
      "name": "fees",
      "outputs": [
        {
          "internalType": "uint256",
          "name": "",
          "type": "uint256"
        }
      ],
      "stateMutability": "view",
      "type": "function"
    },
    {
      "inputs": [
        {
          "internalType": "uint256",
          "name": "tokenId",
          "type": "uint256"
        }
      ],
      "name": "getApproved",
      "outputs": [
        {
          "internalType": "address",
          "name": "",
          "type": "address"
        }
      ],
      "stateMutability": "view",
      "type": "function"
    },
    {
      "inputs": [
        {
          "internalType": "address",
          "name": "owner",
          "type": "address"
        },
        {
          "internalType": "address",
          "name": "operator",
          "type": "address"
        }
      ],
      "name": "isApprovedForAll",
      "outputs": [
        {
          "internalType": "bool",
          "name": "",
          "type": "bool"
        }
      ],
      "stateMutability": "view",
      "type": "function"
    },
    {
      "inputs": [],
      "name": "name",
      "outputs": [
        {
          "internalType": "string",
          "name": "",
          "type": "string"
        }
      ],
      "stateMutability": "view",
      "type": "function"
    },
    {
      "inputs": [],
      "name": "owner",
      "outputs": [
        {
          "internalType": "address",
          "name": "",
          "type": "address"
        }
      ],
      "stateMutability": "view",
      "type": "function"
    },
    {
      "inputs": [
        {
          "internalType": "uint256",
          "name": "tokenId",
          "type": "uint256"
        }
      ],
      "name": "ownerOf",
      "outputs": [
        {
          "internalType": "address",
          "name": "",
          "type": "address"
        }
      ],
      "stateMutability": "view",
      "type": "function"
    },
    {
      "inputs": [],
      "name": "renounceOwnership",
      "outputs": [],
      "stateMutability": "nonpayable",
      "type": "function"
    },
    {
      "inputs": [
        {
          "internalType": "address",
          "name": "to",
          "type": "address"
        },
        {
          "internalType": "string",
          "name": "uri",
          "type": "string"
        }
      ],
      "name": "safeMint",
      "outputs": [],
      "stateMutability": "payable",
      "type": "function"
    },
    {
      "inputs": [
        {
          "internalType": "address",
          "name": "from",
          "type": "address"
        },
        {
          "internalType": "address",
          "name": "to",
          "type": "address"
        },
        {
          "internalType": "uint256",
          "name": "tokenId",
          "type": "uint256"
        }
      ],
      "name": "safeTransferFrom",
      "outputs": [],
      "stateMutability": "nonpayable",
      "type": "function"
    },
    {
      "inputs": [
        {
          "internalType": "address",
          "name": "from",
          "type": "address"
        },
        {
          "internalType": "address",
          "name": "to",
          "type": "address"
        },
        {
          "internalType": "uint256",
          "name": "tokenId",
          "type": "uint256"
        },
        {
          "internalType": "bytes",
          "name": "data",
          "type": "bytes"
        }
      ],
      "name": "safeTransferFrom",
      "outputs": [],
      "stateMutability": "nonpayable",
      "type": "function"
    },
    {
      "inputs": [
        {
          "internalType": "address",
          "name": "operator",
          "type": "address"
        },
        {
          "internalType": "bool",
          "name": "approved",
          "type": "bool"
        }
      ],
      "name": "setApprovalForAll",
      "outputs": [],
      "stateMutability": "nonpayable",
      "type": "function"
    },
    {
      "inputs": [
        {
          "internalType": "bytes4",
          "name": "interfaceId",
          "type": "bytes4"
        }
      ],
      "name": "supportsInterface",
      "outputs": [
        {
          "internalType": "bool",
          "name": "",
          "type": "bool"
        }
      ],
      "stateMutability": "view",
      "type": "function"
    },
    {
      "inputs": [],
      "name": "symbol",
      "outputs": [
        {
          "internalType": "string",
          "name": "",
          "type": "string"
        }
      ],
      "stateMutability": "view",
      "type": "function"
    },
    {
      "inputs": [
        {
          "internalType": "uint256",
          "name": "tokenId",
          "type": "uint256"
        }
      ],
      "name": "tokenURI",
      "outputs": [
        {
          "internalType": "string",
          "name": "",
          "type": "string"
        }
      ],
      "stateMutability": "view",
      "type": "function"
    },
    {
      "inputs": [
        {
          "internalType": "address",
          "name": "from",
          "type": "address"
        },
        {
          "internalType": "address",
          "name": "to",
          "type": "address"
        },
        {
          "internalType": "uint256",
          "name": "tokenId",
          "type": "uint256"
        }
      ],
      "name": "transferFrom",
      "outputs": [],
      "stateMutability": "nonpayable",
      "type": "function"
    },
    {
      "inputs": [
        {
          "internalType": "address",
          "name": "newOwner",
          "type": "address"
        }
      ],
      "name": "transferOwnership",
      "outputs": [],
      "stateMutability": "nonpayable",
      "type": "function"
    }
  ],
  "bytecode": "0x60806040523480156200001157600080fd5b50604051620033da380380620033da8339818101604052810190620000379190620003f3565b82828160009080519060200190620000519291906200016b565b5080600190805190602001906200006a9291906200016b565b5050506200008d620000816200009d60201b60201c565b620000a560201b60201c565b80600981905550505050620004f2565b600033905090565b6000600760009054906101000a900473ffffffffffffffffffffffffffffffffffffffff16905081600760006101000a81548173ffffffffffffffffffffffffffffffffffffffff021916908373ffffffffffffffffffffffffffffffffffffffff1602179055508173ffffffffffffffffffffffffffffffffffffffff168173ffffffffffffffffffffffffffffffffffffffff167f8be0079c531659141344cd1fd0a4f28419497f9722a3daafe3b4186f6b6457e060405160405180910390a35050565b8280546200017990620004bc565b90600052602060002090601f0160209004810192826200019d5760008555620001e9565b82601f10620001b857805160ff1916838001178555620001e9565b82800160010185558215620001e9579182015b82811115620001e8578251825591602001919060010190620001cb565b5b509050620001f89190620001fc565b5090565b5b8082111562000217576000816000905550600101620001fd565b5090565b6000604051905090565b600080fd5b600080fd5b600080fd5b600080fd5b6000601f19601f8301169050919050565b7f4e487b7100000000000000000000000000000000000000000000000000000000600052604160045260246000fd5b620002848262000239565b810181811067ffffffffffffffff82111715620002a657620002a56200024a565b5b80604052505050565b6000620002bb6200021b565b9050620002c9828262000279565b919050565b600067ffffffffffffffff821115620002ec57620002eb6200024a565b5b620002f78262000239565b9050602081019050919050565b60005b838110156200032457808201518184015260208101905062000307565b8381111562000334576000848401525b50505050565b6000620003516200034b84620002ce565b620002af565b90508281526020810184848401111562000370576200036f62000234565b5b6200037d84828562000304565b509392505050565b600082601f8301126200039d576200039c6200022f565b5b8151620003af8482602086016200033a565b91505092915050565b6000819050919050565b620003cd81620003b8565b8114620003d957600080fd5b50565b600081519050620003ed81620003c2565b92915050565b6000806000606084860312156200040f576200040e62000225565b5b600084015167ffffffffffffffff81111562000430576200042f6200022a565b5b6200043e8682870162000385565b935050602084015167ffffffffffffffff8111156200046257620004616200022a565b5b620004708682870162000385565b92505060406200048386828701620003dc565b9150509250925092565b7f4e487b7100000000000000000000000000000000000000000000000000000000600052602260045260246000fd5b60006002820490506001821680620004d557607f821691505b60208210811415620004ec57620004eb6200048d565b5b50919050565b612ed880620005026000396000f3fe6080604052600436106101095760003560e01c80638da5cb5b11610095578063b88d4fde11610064578063b88d4fde14610369578063c87b56dd14610392578063d204c45e146103cf578063e985e9c5146103eb578063f2fde38b1461042857610109565b80638da5cb5b146102bf57806395d89b41146102ea5780639af1d35a14610315578063a22cb4651461034057610109565b806323b872dd116100dc57806323b872dd146101dc57806342842e0e146102055780636352211e1461022e57806370a082311461026b578063715018a6146102a857610109565b806301ffc9a71461010e57806306fdde031461014b578063081812fc14610176578063095ea7b3146101b3575b600080fd5b34801561011a57600080fd5b5061013560048036038101906101309190611d3e565b610451565b6040516101429190611d86565b60405180910390f35b34801561015757600080fd5b50610160610533565b60405161016d9190611e3a565b60405180910390f35b34801561018257600080fd5b5061019d60048036038101906101989190611e92565b6105c5565b6040516101aa9190611f00565b60405180910390f35b3480156101bf57600080fd5b506101da60048036038101906101d59190611f47565b61060b565b005b3480156101e857600080fd5b5061020360048036038101906101fe9190611f87565b610723565b005b34801561021157600080fd5b5061022c60048036038101906102279190611f87565b610783565b005b34801561023a57600080fd5b5061025560048036038101906102509190611e92565b6107a3565b6040516102629190611f00565b60405180910390f35b34801561027757600080fd5b50610292600480360381019061028d9190611fda565b610855565b60405161029f9190612016565b60405180910390f35b3480156102b457600080fd5b506102bd61090d565b005b3480156102cb57600080fd5b506102d4610921565b6040516102e19190611f00565b60405180910390f35b3480156102f657600080fd5b506102ff61094b565b60405161030c9190611e3a565b60405180910390f35b34801561032157600080fd5b5061032a6109dd565b6040516103379190612016565b60405180910390f35b34801561034c57600080fd5b506103676004803603810190610362919061205d565b6109e3565b005b34801561037557600080fd5b50610390600480360381019061038b91906121d2565b6109f9565b005b34801561039e57600080fd5b506103b960048036038101906103b49190611e92565b610a5b565b6040516103c69190611e3a565b60405180910390f35b6103e960048036038101906103e491906122f6565b610a6d565b005b3480156103f757600080fd5b50610412600480360381019061040d9190612352565b610b8a565b60405161041f9190611d86565b60405180910390f35b34801561043457600080fd5b5061044f600480360381019061044a9190611fda565b610c1e565b005b60007f80ac58cd000000000000000000000000000000000000000000000000000000007bffffffffffffffffffffffffffffffffffffffffffffffffffffffff1916827bffffffffffffffffffffffffffffffffffffffffffffffffffffffff1916148061051c57507f5b5e139f000000000000000000000000000000000000000000000000000000007bffffffffffffffffffffffffffffffffffffffffffffffffffffffff1916827bffffffffffffffffffffffffffffffffffffffffffffffffffffffff1916145b8061052c575061052b82610ca2565b5b9050919050565b606060008054610542906123c1565b80601f016020809104026020016040519081016040528092919081815260200182805461056e906123c1565b80156105bb5780601f10610590576101008083540402835291602001916105bb565b820191906000526020600020905b81548152906001019060200180831161059e57829003601f168201915b5050505050905090565b60006105d082610d0c565b6004600083815260200190815260200160002060009054906101000a900473ffffffffffffffffffffffffffffffffffffffff169050919050565b6000610616826107a3565b90508073ffffffffffffffffffffffffffffffffffffffff168373ffffffffffffffffffffffffffffffffffffffff161415610687576040517f08c379a000000000000000000000000000000000000000000000000000000000815260040161067e90612465565b60405180910390fd5b8073ffffffffffffffffffffffffffffffffffffffff166106a6610d57565b73ffffffffffffffffffffffffffffffffffffffff1614806106d557506106d4816106cf610d57565b610b8a565b5b610714576040517f08c379a000000000000000000000000000000000000000000000000000000000815260040161070b906124f7565b60405180910390fd5b61071e8383610d5f565b505050565b61073461072e610d57565b82610e18565b610773576040517f08c379a000000000000000000000000000000000000000000000000000000000815260040161076a90612589565b60405180910390fd5b61077e838383610ead565b505050565b61079e838383604051806020016040528060008152506109f9565b505050565b6000806002600084815260200190815260200160002060009054906101000a900473ffffffffffffffffffffffffffffffffffffffff169050600073ffffffffffffffffffffffffffffffffffffffff168173ffffffffffffffffffffffffffffffffffffffff16141561084c576040517f08c379a0000000000000000000000000000000000000000000000000000000008152600401610843906125f5565b60405180910390fd5b80915050919050565b60008073ffffffffffffffffffffffffffffffffffffffff168273ffffffffffffffffffffffffffffffffffffffff1614156108c6576040517f08c379a00000000000000000000000000000000000000000000000000000000081526004016108bd90612687565b60405180910390fd5b600360008373ffffffffffffffffffffffffffffffffffffffff1673ffffffffffffffffffffffffffffffffffffffff168152602001908152602001600020549050919050565b610915611114565b61091f6000611192565b565b6000600760009054906101000a900473ffffffffffffffffffffffffffffffffffffffff16905090565b60606001805461095a906123c1565b80601f0160208091040260200160405190810160405280929190818152602001828054610986906123c1565b80156109d35780601f106109a8576101008083540402835291602001916109d3565b820191906000526020600020905b8154815290600101906020018083116109b657829003601f168201915b5050505050905090565b60095481565b6109f56109ee610d57565b8383611258565b5050565b610a0a610a04610d57565b83610e18565b610a49576040517f08c379a0000000000000000000000000000000000000000000000000000000008152600401610a4090612589565b60405180910390fd5b610a55848484846113c5565b50505050565b6060610a6682611421565b9050919050565b600954341015610ab2576040517f08c379a0000000000000000000000000000000000000000000000000000000008152600401610aa9906126f3565b60405180910390fd5b610aba610921565b73ffffffffffffffffffffffffffffffffffffffff166108fc6009549081150290604051600060405180830381858888f19350505050158015610b01573d6000803e3d6000fd5b506000610b0e6008611534565b9050610b1a6008611542565b610b248382611558565b610b2e8183611576565b60004790506000811115610b84573373ffffffffffffffffffffffffffffffffffffffff166108fc479081150290604051600060405180830381858888f19350505050158015610b82573d6000803e3d6000fd5b505b50505050565b6000600560008473ffffffffffffffffffffffffffffffffffffffff1673ffffffffffffffffffffffffffffffffffffffff16815260200190815260200160002060008373ffffffffffffffffffffffffffffffffffffffff1673ffffffffffffffffffffffffffffffffffffffff16815260200190815260200160002060009054906101000a900460ff16905092915050565b610c26611114565b600073ffffffffffffffffffffffffffffffffffffffff168173ffffffffffffffffffffffffffffffffffffffff161415610c96576040517f08c379a0000000000000000000000000000000000000000000000000000000008152600401610c8d90612785565b60405180910390fd5b610c9f81611192565b50565b60007f01ffc9a7000000000000000000000000000000000000000000000000000000007bffffffffffffffffffffffffffffffffffffffffffffffffffffffff1916827bffffffffffffffffffffffffffffffffffffffffffffffffffffffff1916149050919050565b610d15816115ea565b610d54576040517f08c379a0000000000000000000000000000000000000000000000000000000008152600401610d4b906125f5565b60405180910390fd5b50565b600033905090565b816004600083815260200190815260200160002060006101000a81548173ffffffffffffffffffffffffffffffffffffffff021916908373ffffffffffffffffffffffffffffffffffffffff160217905550808273ffffffffffffffffffffffffffffffffffffffff16610dd2836107a3565b73ffffffffffffffffffffffffffffffffffffffff167f8c5be1e5ebec7d5bd14f71427d1e84f3dd0314c0f7b2291e5b200ac8c7c3b92560405160405180910390a45050565b600080610e24836107a3565b90508073ffffffffffffffffffffffffffffffffffffffff168473ffffffffffffffffffffffffffffffffffffffff161480610e665750610e658185610b8a565b5b80610ea457508373ffffffffffffffffffffffffffffffffffffffff16610e8c846105c5565b73ffffffffffffffffffffffffffffffffffffffff16145b91505092915050565b8273ffffffffffffffffffffffffffffffffffffffff16610ecd826107a3565b73ffffffffffffffffffffffffffffffffffffffff1614610f23576040517f08c379a0000000000000000000000000000000000000000000000000000000008152600401610f1a90612817565b60405180910390fd5b600073ffffffffffffffffffffffffffffffffffffffff168273ffffffffffffffffffffffffffffffffffffffff161415610f93576040517f08c379a0000000000000000000000000000000000000000000000000000000008152600401610f8a906128a9565b60405180910390fd5b610f9e838383611656565b610fa9600082610d5f565b6001600360008573ffffffffffffffffffffffffffffffffffffffff1673ffffffffffffffffffffffffffffffffffffffff1681526020019081526020016000206000828254610ff991906128f8565b925050819055506001600360008473ffffffffffffffffffffffffffffffffffffffff1673ffffffffffffffffffffffffffffffffffffffff1681526020019081526020016000206000828254611050919061292c565b92505081905550816002600083815260200190815260200160002060006101000a81548173ffffffffffffffffffffffffffffffffffffffff021916908373ffffffffffffffffffffffffffffffffffffffff160217905550808273ffffffffffffffffffffffffffffffffffffffff168473ffffffffffffffffffffffffffffffffffffffff167fddf252ad1be2c89b69c2b068fc378daa952ba7f163c4a11628f55a4df523b3ef60405160405180910390a461110f83838361165b565b505050565b61111c610d57565b73ffffffffffffffffffffffffffffffffffffffff1661113a610921565b73ffffffffffffffffffffffffffffffffffffffff1614611190576040517f08c379a0000000000000000000000000000000000000000000000000000000008152600401611187906129ce565b60405180910390fd5b565b6000600760009054906101000a900473ffffffffffffffffffffffffffffffffffffffff16905081600760006101000a81548173ffffffffffffffffffffffffffffffffffffffff021916908373ffffffffffffffffffffffffffffffffffffffff1602179055508173ffffffffffffffffffffffffffffffffffffffff168173ffffffffffffffffffffffffffffffffffffffff167f8be0079c531659141344cd1fd0a4f28419497f9722a3daafe3b4186f6b6457e060405160405180910390a35050565b8173ffffffffffffffffffffffffffffffffffffffff168373ffffffffffffffffffffffffffffffffffffffff1614156112c7576040517f08c379a00000000000000000000000000000000000000000000000000000000081526004016112be90612a3a565b60405180910390fd5b80600560008573ffffffffffffffffffffffffffffffffffffffff1673ffffffffffffffffffffffffffffffffffffffff16815260200190815260200160002060008473ffffffffffffffffffffffffffffffffffffffff1673ffffffffffffffffffffffffffffffffffffffff16815260200190815260200160002060006101000a81548160ff0219169083151502179055508173ffffffffffffffffffffffffffffffffffffffff168373ffffffffffffffffffffffffffffffffffffffff167f17307eab39ab6107e8899845ad3d59bd9653f200f220920489ca2b5937696c31836040516113b89190611d86565b60405180910390a3505050565b6113d0848484610ead565b6113dc84848484611660565b61141b576040517f08c379a000000000000000000000000000000000000000000000000000000000815260040161141290612acc565b60405180910390fd5b50505050565b606061142c82610d0c565b600060066000848152602001908152602001600020805461144c906123c1565b80601f0160208091040260200160405190810160405280929190818152602001828054611478906123c1565b80156114c55780601f1061149a576101008083540402835291602001916114c5565b820191906000526020600020905b8154815290600101906020018083116114a857829003601f168201915b5050505050905060006114d66117f7565b90506000815114156114ec57819250505061152f565b600082511115611521578082604051602001611509929190612b28565b6040516020818303038152906040529250505061152f565b61152a8461180e565b925050505b919050565b600081600001549050919050565b6001816000016000828254019250508190555050565b611572828260405180602001604052806000815250611876565b5050565b61157f826115ea565b6115be576040517f08c379a00000000000000000000000000000000000000000000000000000000081526004016115b590612bbe565b60405180910390fd5b806006600084815260200190815260200160002090805190602001906115e5929190611c2f565b505050565b60008073ffffffffffffffffffffffffffffffffffffffff166002600084815260200190815260200160002060009054906101000a900473ffffffffffffffffffffffffffffffffffffffff1673ffffffffffffffffffffffffffffffffffffffff1614159050919050565b505050565b505050565b60006116818473ffffffffffffffffffffffffffffffffffffffff166118d1565b156117ea578373ffffffffffffffffffffffffffffffffffffffff1663150b7a026116aa610d57565b8786866040518563ffffffff1660e01b81526004016116cc9493929190612c33565b602060405180830381600087803b1580156116e657600080fd5b505af192505050801561171757506040513d601f19601f820116820180604052508101906117149190612c94565b60015b61179a573d8060008114611747576040519150601f19603f3d011682016040523d82523d6000602084013e61174c565b606091505b50600081511415611792576040517f08c379a000000000000000000000000000000000000000000000000000000000815260040161178990612acc565b60405180910390fd5b805181602001fd5b63150b7a0260e01b7bffffffffffffffffffffffffffffffffffffffffffffffffffffffff1916817bffffffffffffffffffffffffffffffffffffffffffffffffffffffff1916149150506117ef565b600190505b949350505050565b606060405180602001604052806000815250905090565b606061181982610d0c565b60006118236117f7565b90506000815111611843576040518060200160405280600081525061186e565b8061184d846118f4565b60405160200161185e929190612b28565b6040516020818303038152906040525b915050919050565b6118808383611a55565b61188d6000848484611660565b6118cc576040517f08c379a00000000000000000000000000000000000000000000000000000000081526004016118c390612acc565b60405180910390fd5b505050565b6000808273ffffffffffffffffffffffffffffffffffffffff163b119050919050565b6060600082141561193c576040518060400160405280600181526020017f30000000000000000000000000000000000000000000000000000000000000008152509050611a50565b600082905060005b6000821461196e57808061195790612cc1565b915050600a826119679190612d39565b9150611944565b60008167ffffffffffffffff81111561198a576119896120a7565b5b6040519080825280601f01601f1916602001820160405280156119bc5781602001600182028036833780820191505090505b5090505b60008514611a49576001826119d591906128f8565b9150600a856119e49190612d6a565b60306119f0919061292c565b60f81b818381518110611a0657611a05612d9b565b5b60200101907effffffffffffffffffffffffffffffffffffffffffffffffffffffffffffff1916908160001a905350600a85611a429190612d39565b94506119c0565b8093505050505b919050565b600073ffffffffffffffffffffffffffffffffffffffff168273ffffffffffffffffffffffffffffffffffffffff161415611ac5576040517f08c379a0000000000000000000000000000000000000000000000000000000008152600401611abc90612e16565b60405180910390fd5b611ace816115ea565b15611b0e576040517f08c379a0000000000000000000000000000000000000000000000000000000008152600401611b0590612e82565b60405180910390fd5b611b1a60008383611656565b6001600360008473ffffffffffffffffffffffffffffffffffffffff1673ffffffffffffffffffffffffffffffffffffffff1681526020019081526020016000206000828254611b6a919061292c565b92505081905550816002600083815260200190815260200160002060006101000a81548173ffffffffffffffffffffffffffffffffffffffff021916908373ffffffffffffffffffffffffffffffffffffffff160217905550808273ffffffffffffffffffffffffffffffffffffffff16600073ffffffffffffffffffffffffffffffffffffffff167fddf252ad1be2c89b69c2b068fc378daa952ba7f163c4a11628f55a4df523b3ef60405160405180910390a4611c2b6000838361165b565b5050565b828054611c3b906123c1565b90600052602060002090601f016020900481019282611c5d5760008555611ca4565b82601f10611c7657805160ff1916838001178555611ca4565b82800160010185558215611ca4579182015b82811115611ca3578251825591602001919060010190611c88565b5b509050611cb19190611cb5565b5090565b5b80821115611cce576000816000905550600101611cb6565b5090565b6000604051905090565b600080fd5b600080fd5b60007fffffffff0000000000000000000000000000000000000000000000000000000082169050919050565b611d1b81611ce6565b8114611d2657600080fd5b50565b600081359050611d3881611d12565b92915050565b600060208284031215611d5457611d53611cdc565b5b6000611d6284828501611d29565b91505092915050565b60008115159050919050565b611d8081611d6b565b82525050565b6000602082019050611d9b6000830184611d77565b92915050565b600081519050919050565b600082825260208201905092915050565b60005b83811015611ddb578082015181840152602081019050611dc0565b83811115611dea576000848401525b50505050565b6000601f19601f8301169050919050565b6000611e0c82611da1565b611e168185611dac565b9350611e26818560208601611dbd565b611e2f81611df0565b840191505092915050565b60006020820190508181036000830152611e548184611e01565b905092915050565b6000819050919050565b611e6f81611e5c565b8114611e7a57600080fd5b50565b600081359050611e8c81611e66565b92915050565b600060208284031215611ea857611ea7611cdc565b5b6000611eb684828501611e7d565b91505092915050565b600073ffffffffffffffffffffffffffffffffffffffff82169050919050565b6000611eea82611ebf565b9050919050565b611efa81611edf565b82525050565b6000602082019050611f156000830184611ef1565b92915050565b611f2481611edf565b8114611f2f57600080fd5b50565b600081359050611f4181611f1b565b92915050565b60008060408385031215611f5e57611f5d611cdc565b5b6000611f6c85828601611f32565b9250506020611f7d85828601611e7d565b9150509250929050565b600080600060608486031215611fa057611f9f611cdc565b5b6000611fae86828701611f32565b9350506020611fbf86828701611f32565b9250506040611fd086828701611e7d565b9150509250925092565b600060208284031215611ff057611fef611cdc565b5b6000611ffe84828501611f32565b91505092915050565b61201081611e5c565b82525050565b600060208201905061202b6000830184612007565b92915050565b61203a81611d6b565b811461204557600080fd5b50565b60008135905061205781612031565b92915050565b6000806040838503121561207457612073611cdc565b5b600061208285828601611f32565b925050602061209385828601612048565b9150509250929050565b600080fd5b600080fd5b7f4e487b7100000000000000000000000000000000000000000000000000000000600052604160045260246000fd5b6120df82611df0565b810181811067ffffffffffffffff821117156120fe576120fd6120a7565b5b80604052505050565b6000612111611cd2565b905061211d82826120d6565b919050565b600067ffffffffffffffff82111561213d5761213c6120a7565b5b61214682611df0565b9050602081019050919050565b82818337600083830152505050565b600061217561217084612122565b612107565b905082815260208101848484011115612191576121906120a2565b5b61219c848285612153565b509392505050565b600082601f8301126121b9576121b861209d565b5b81356121c9848260208601612162565b91505092915050565b600080600080608085870312156121ec576121eb611cdc565b5b60006121fa87828801611f32565b945050602061220b87828801611f32565b935050604061221c87828801611e7d565b925050606085013567ffffffffffffffff81111561223d5761223c611ce1565b5b612249878288016121a4565b91505092959194509250565b600067ffffffffffffffff8211156122705761226f6120a7565b5b61227982611df0565b9050602081019050919050565b600061229961229484612255565b612107565b9050828152602081018484840111156122b5576122b46120a2565b5b6122c0848285612153565b509392505050565b600082601f8301126122dd576122dc61209d565b5b81356122ed848260208601612286565b91505092915050565b6000806040838503121561230d5761230c611cdc565b5b600061231b85828601611f32565b925050602083013567ffffffffffffffff81111561233c5761233b611ce1565b5b612348858286016122c8565b9150509250929050565b6000806040838503121561236957612368611cdc565b5b600061237785828601611f32565b925050602061238885828601611f32565b9150509250929050565b7f4e487b7100000000000000000000000000000000000000000000000000000000600052602260045260246000fd5b600060028204905060018216806123d957607f821691505b602082108114156123ed576123ec612392565b5b50919050565b7f4552433732313a20617070726f76616c20746f2063757272656e74206f776e6560008201527f7200000000000000000000000000000000000000000000000000000000000000602082015250565b600061244f602183611dac565b915061245a826123f3565b604082019050919050565b6000602082019050818103600083015261247e81612442565b9050919050565b7f4552433732313a20617070726f76652063616c6c6572206973206e6f7420746f60008201527f6b656e206f776e6572206e6f7220617070726f76656420666f7220616c6c0000602082015250565b60006124e1603e83611dac565b91506124ec82612485565b604082019050919050565b60006020820190508181036000830152612510816124d4565b9050919050565b7f4552433732313a2063616c6c6572206973206e6f7420746f6b656e206f776e6560008201527f72206e6f7220617070726f766564000000000000000000000000000000000000602082015250565b6000612573602e83611dac565b915061257e82612517565b604082019050919050565b600060208201905081810360008301526125a281612566565b9050919050565b7f4552433732313a20696e76616c696420746f6b656e2049440000000000000000600082015250565b60006125df601883611dac565b91506125ea826125a9565b602082019050919050565b6000602082019050818103600083015261260e816125d2565b9050919050565b7f4552433732313a2061646472657373207a65726f206973206e6f74206120766160008201527f6c6964206f776e65720000000000000000000000000000000000000000000000602082015250565b6000612671602983611dac565b915061267c82612615565b604082019050919050565b600060208201905081810360008301526126a081612664565b9050919050565b7f4e6f7420456e6f756768204d4154494300000000000000000000000000000000600082015250565b60006126dd601083611dac565b91506126e8826126a7565b602082019050919050565b6000602082019050818103600083015261270c816126d0565b9050919050565b7f4f776e61626c653a206e6577206f776e657220697320746865207a65726f206160008201527f6464726573730000000000000000000000000000000000000000000000000000602082015250565b600061276f602683611dac565b915061277a82612713565b604082019050919050565b6000602082019050818103600083015261279e81612762565b9050919050565b7f4552433732313a207472616e736665722066726f6d20696e636f72726563742060008201527f6f776e6572000000000000000000000000000000000000000000000000000000602082015250565b6000612801602583611dac565b915061280c826127a5565b604082019050919050565b60006020820190508181036000830152612830816127f4565b9050919050565b7f4552433732313a207472616e7366657220746f20746865207a65726f2061646460008201527f7265737300000000000000000000000000000000000000000000000000000000602082015250565b6000612893602483611dac565b915061289e82612837565b604082019050919050565b600060208201905081810360008301526128c281612886565b9050919050565b7f4e487b7100000000000000000000000000000000000000000000000000000000600052601160045260246000fd5b600061290382611e5c565b915061290e83611e5c565b925082821015612921576129206128c9565b5b828203905092915050565b600061293782611e5c565b915061294283611e5c565b9250827fffffffffffffffffffffffffffffffffffffffffffffffffffffffffffffffff03821115612977576129766128c9565b5b828201905092915050565b7f4f776e61626c653a2063616c6c6572206973206e6f7420746865206f776e6572600082015250565b60006129b8602083611dac565b91506129c382612982565b602082019050919050565b600060208201905081810360008301526129e7816129ab565b9050919050565b7f4552433732313a20617070726f766520746f2063616c6c657200000000000000600082015250565b6000612a24601983611dac565b9150612a2f826129ee565b602082019050919050565b60006020820190508181036000830152612a5381612a17565b9050919050565b7f4552433732313a207472616e7366657220746f206e6f6e20455243373231526560008201527f63656976657220696d706c656d656e7465720000000000000000000000000000602082015250565b6000612ab6603283611dac565b9150612ac182612a5a565b604082019050919050565b60006020820190508181036000830152612ae581612aa9565b9050919050565b600081905092915050565b6000612b0282611da1565b612b0c8185612aec565b9350612b1c818560208601611dbd565b80840191505092915050565b6000612b348285612af7565b9150612b408284612af7565b91508190509392505050565b7f45524337323155524953746f726167653a2055524920736574206f66206e6f6e60008201527f6578697374656e7420746f6b656e000000000000000000000000000000000000602082015250565b6000612ba8602e83611dac565b9150612bb382612b4c565b604082019050919050565b60006020820190508181036000830152612bd781612b9b565b9050919050565b600081519050919050565b600082825260208201905092915050565b6000612c0582612bde565b612c0f8185612be9565b9350612c1f818560208601611dbd565b612c2881611df0565b840191505092915050565b6000608082019050612c486000830187611ef1565b612c556020830186611ef1565b612c626040830185612007565b8181036060830152612c748184612bfa565b905095945050505050565b600081519050612c8e81611d12565b92915050565b600060208284031215612caa57612ca9611cdc565b5b6000612cb884828501612c7f565b91505092915050565b6000612ccc82611e5c565b91507fffffffffffffffffffffffffffffffffffffffffffffffffffffffffffffffff821415612cff57612cfe6128c9565b5b600182019050919050565b7f4e487b7100000000000000000000000000000000000000000000000000000000600052601260045260246000fd5b6000612d4482611e5c565b9150612d4f83611e5c565b925082612d5f57612d5e612d0a565b5b828204905092915050565b6000612d7582611e5c565b9150612d8083611e5c565b925082612d9057612d8f612d0a565b5b828206905092915050565b7f4e487b7100000000000000000000000000000000000000000000000000000000600052603260045260246000fd5b7f4552433732313a206d696e7420746f20746865207a65726f2061646472657373600082015250565b6000612e00602083611dac565b9150612e0b82612dca565b602082019050919050565b60006020820190508181036000830152612e2f81612df3565b9050919050565b7f4552433732313a20746f6b656e20616c7265616479206d696e74656400000000600082015250565b6000612e6c601c83611dac565b9150612e7782612e36565b602082019050919050565b60006020820190508181036000830152612e9b81612e5f565b905091905056fea2646970667358221220ebfe1322f82ec254e10fd28149e2a9be545f958f00803322cf69dddc31ce4c7664736f6c63430008090033",
  "linkReferences": {},
  "deployedLinkReferences": {}
}